{
	"contracts/EnumDemo.sol": {
		"EnumDemo": {
			"abi": [
				{
					"inputs": [],
					"name": "getState",
					"outputs": [
						{
							"internalType": "enum EnumDemo.State",
							"name": "",
							"type": "uint8"
						}
					],
					"stateMutability": "view",
					"type": "function"
				},
				{
					"inputs": [],
					"name": "off",
					"outputs": [],
					"stateMutability": "nonpayable",
					"type": "function"
				},
				{
					"inputs": [],
					"name": "on",
					"outputs": [],
					"stateMutability": "nonpayable",
					"type": "function"
				},
				{
					"inputs": [],
					"name": "reset",
					"outputs": [],
					"stateMutability": "nonpayable",
					"type": "function"
				},
				{
					"inputs": [
						{
							"internalType": "enum EnumDemo.State",
							"name": "_state",
							"type": "uint8"
						}
					],
					"name": "setState",
					"outputs": [],
					"stateMutability": "nonpayable",
					"type": "function"
				},
				{
					"inputs": [],
					"name": "state",
					"outputs": [
						{
							"internalType": "enum EnumDemo.State",
							"name": "",
							"type": "uint8"
						}
					],
					"stateMutability": "view",
					"type": "function"
				}
			],
			"devdoc": {
				"kind": "dev",
				"methods": {},
				"version": 1
			},
			"evm": {
				"assembly": "    /* \"contracts/EnumDemo.sol\":68:510  contract EnumDemo {... */\n  mstore(0x40, 0x80)\n  callvalue\n  dup1\n  iszero\n  tag_1\n  jumpi\n  0x00\n  dup1\n  revert\ntag_1:\n  pop\n  dataSize(sub_0)\n  dup1\n  dataOffset(sub_0)\n  0x00\n  codecopy\n  0x00\n  return\nstop\n\nsub_0: assembly {\n        /* \"contracts/EnumDemo.sol\":68:510  contract EnumDemo {... */\n      mstore(0x40, 0x80)\n      callvalue\n      dup1\n      iszero\n      tag_1\n      jumpi\n      0x00\n      dup1\n      revert\n    tag_1:\n      pop\n      jumpi(tag_2, lt(calldatasize, 0x04))\n      shr(0xe0, calldataload(0x00))\n      dup1\n      0x1865c57d\n      eq\n      tag_3\n      jumpi\n      dup1\n      0x56de96db\n      eq\n      tag_4\n      jumpi\n      dup1\n      0x6626b26d\n      eq\n      tag_5\n      jumpi\n      dup1\n      0x67b7c034\n      eq\n      tag_6\n      jumpi\n      dup1\n      0xc19d93fb\n      eq\n      tag_7\n      jumpi\n      dup1\n      0xd826f88f\n      eq\n      tag_8\n      jumpi\n    tag_2:\n      0x00\n      dup1\n      revert\n        /* \"contracts/EnumDemo.sol\":175:251  function getState() public view returns(State) {... */\n    tag_3:\n      tag_9\n      tag_10\n      jump\t// in\n    tag_9:\n      mload(0x40)\n      tag_11\n      swap2\n      swap1\n      tag_12\n      jump\t// in\n    tag_11:\n      mload(0x40)\n      dup1\n      swap2\n      sub\n      swap1\n      return\n        /* \"contracts/EnumDemo.sol\":257:327  function setState(State _state) public {... */\n    tag_4:\n      tag_13\n      0x04\n      dup1\n      calldatasize\n      sub\n      dup2\n      add\n      swap1\n      tag_14\n      swap2\n      swap1\n      tag_15\n      jump\t// in\n    tag_14:\n      tag_16\n      jump\t// in\n    tag_13:\n      stop\n        /* \"contracts/EnumDemo.sol\":393:449  function off() public {... */\n    tag_5:\n      tag_17\n      tag_18\n      jump\t// in\n    tag_17:\n      stop\n        /* \"contracts/EnumDemo.sol\":333:387  function on() public {... */\n    tag_6:\n      tag_19\n      tag_20\n      jump\t// in\n    tag_19:\n      stop\n        /* \"contracts/EnumDemo.sol\":150:168  State public state */\n    tag_7:\n      tag_21\n      tag_22\n      jump\t// in\n    tag_21:\n      mload(0x40)\n      tag_23\n      swap2\n      swap1\n      tag_12\n      jump\t// in\n    tag_23:\n      mload(0x40)\n      dup1\n      swap2\n      sub\n      swap1\n      return\n        /* \"contracts/EnumDemo.sol\":455:508  function reset() public {... */\n    tag_8:\n      tag_24\n      tag_25\n      jump\t// in\n    tag_24:\n      stop\n        /* \"contracts/EnumDemo.sol\":175:251  function getState() public view returns(State) {... */\n    tag_10:\n        /* \"contracts/EnumDemo.sol\":215:220  State */\n      0x00\n        /* \"contracts/EnumDemo.sol\":239:244  state */\n      dup1\n      0x00\n      swap1\n      sload\n      swap1\n      0x0100\n      exp\n      swap1\n      div\n      0xff\n      and\n        /* \"contracts/EnumDemo.sol\":232:244  return state */\n      swap1\n      pop\n        /* \"contracts/EnumDemo.sol\":175:251  function getState() public view returns(State) {... */\n      swap1\n      jump\t// out\n        /* \"contracts/EnumDemo.sol\":257:327  function setState(State _state) public {... */\n    tag_16:\n        /* \"contracts/EnumDemo.sol\":314:320  _state */\n      dup1\n        /* \"contracts/EnumDemo.sol\":306:311  state */\n      0x00\n      dup1\n        /* \"contracts/EnumDemo.sol\":306:320  state = _state */\n      0x0100\n      exp\n      dup2\n      sload\n      dup2\n      0xff\n      mul\n      not\n      and\n      swap1\n      dup4\n      0x01\n      dup2\n      gt\n      iszero\n      tag_28\n      jumpi\n      tag_29\n      tag_30\n      jump\t// in\n    tag_29:\n    tag_28:\n      mul\n      or\n      swap1\n      sstore\n      pop\n        /* \"contracts/EnumDemo.sol\":257:327  function setState(State _state) public {... */\n      pop\n      jump\t// out\n        /* \"contracts/EnumDemo.sol\":393:449  function off() public {... */\n    tag_18:\n        /* \"contracts/EnumDemo.sol\":433:442  State.Off */\n      0x00\n        /* \"contracts/EnumDemo.sol\":425:430  state */\n      dup1\n      0x00\n        /* \"contracts/EnumDemo.sol\":425:442  state = State.Off */\n      0x0100\n      exp\n      dup2\n      sload\n      dup2\n      0xff\n      mul\n      not\n      and\n      swap1\n      dup4\n      0x01\n      dup2\n      gt\n      iszero\n      tag_32\n      jumpi\n      tag_33\n      tag_30\n      jump\t// in\n    tag_33:\n    tag_32:\n      mul\n      or\n      swap1\n      sstore\n      pop\n        /* \"contracts/EnumDemo.sol\":393:449  function off() public {... */\n      jump\t// out\n        /* \"contracts/EnumDemo.sol\":333:387  function on() public {... */\n    tag_20:\n        /* \"contracts/EnumDemo.sol\":372:380  State.On */\n      0x01\n        /* \"contracts/EnumDemo.sol\":364:369  state */\n      0x00\n      dup1\n        /* \"contracts/EnumDemo.sol\":364:380  state = State.On */\n      0x0100\n      exp\n      dup2\n      sload\n      dup2\n      0xff\n      mul\n      not\n      and\n      swap1\n      dup4\n      0x01\n      dup2\n      gt\n      iszero\n      tag_35\n      jumpi\n      tag_36\n      tag_30\n      jump\t// in\n    tag_36:\n    tag_35:\n      mul\n      or\n      swap1\n      sstore\n      pop\n        /* \"contracts/EnumDemo.sol\":333:387  function on() public {... */\n      jump\t// out\n        /* \"contracts/EnumDemo.sol\":150:168  State public state */\n    tag_22:\n      0x00\n      dup1\n      sload\n      swap1\n      0x0100\n      exp\n      swap1\n      div\n      0xff\n      and\n      dup2\n      jump\t// out\n        /* \"contracts/EnumDemo.sol\":455:508  function reset() public {... */\n    tag_25:\n        /* \"contracts/EnumDemo.sol\":496:501  state */\n      0x00\n      dup1\n        /* \"contracts/EnumDemo.sol\":489:501  delete state */\n      0x0100\n      exp\n      dup2\n      sload\n      swap1\n      0xff\n      mul\n      not\n      and\n      swap1\n      sstore\n        /* \"contracts/EnumDemo.sol\":455:508  function reset() public {... */\n      jump\t// out\n        /* \"#utility.yul\":7:187   */\n    tag_30:\n        /* \"#utility.yul\":55:132   */\n      0x4e487b7100000000000000000000000000000000000000000000000000000000\n        /* \"#utility.yul\":52:53   */\n      0x00\n        /* \"#utility.yul\":45:133   */\n      mstore\n        /* \"#utility.yul\":152:156   */\n      0x21\n        /* \"#utility.yul\":149:150   */\n      0x04\n        /* \"#utility.yul\":142:157   */\n      mstore\n        /* \"#utility.yul\":176:180   */\n      0x24\n        /* \"#utility.yul\":173:174   */\n      0x00\n        /* \"#utility.yul\":166:181   */\n      revert\n        /* \"#utility.yul\":193:305   */\n    tag_38:\n        /* \"#utility.yul\":273:274   */\n      0x02\n        /* \"#utility.yul\":266:271   */\n      dup2\n        /* \"#utility.yul\":263:275   */\n      lt\n        /* \"#utility.yul\":253:299   */\n      tag_50\n      jumpi\n        /* \"#utility.yul\":279:297   */\n      tag_51\n      tag_30\n      jump\t// in\n    tag_51:\n        /* \"#utility.yul\":253:299   */\n    tag_50:\n        /* \"#utility.yul\":193:305   */\n      pop\n      jump\t// out\n        /* \"#utility.yul\":311:436   */\n    tag_39:\n        /* \"#utility.yul\":355:362   */\n      0x00\n        /* \"#utility.yul\":384:389   */\n      dup2\n        /* \"#utility.yul\":373:389   */\n      swap1\n      pop\n        /* \"#utility.yul\":390:430   */\n      tag_53\n        /* \"#utility.yul\":424:429   */\n      dup3\n        /* \"#utility.yul\":390:430   */\n      tag_38\n      jump\t// in\n    tag_53:\n        /* \"#utility.yul\":311:436   */\n      swap2\n      swap1\n      pop\n      jump\t// out\n        /* \"#utility.yul\":442:567   */\n    tag_40:\n        /* \"#utility.yul\":497:506   */\n      0x00\n        /* \"#utility.yul\":530:561   */\n      tag_55\n        /* \"#utility.yul\":555:560   */\n      dup3\n        /* \"#utility.yul\":530:561   */\n      tag_39\n      jump\t// in\n    tag_55:\n        /* \"#utility.yul\":517:561   */\n      swap1\n      pop\n        /* \"#utility.yul\":442:567   */\n      swap2\n      swap1\n      pop\n      jump\t// out\n        /* \"#utility.yul\":573:714   */\n    tag_41:\n        /* \"#utility.yul\":665:707   */\n      tag_57\n        /* \"#utility.yul\":701:706   */\n      dup2\n        /* \"#utility.yul\":665:707   */\n      tag_40\n      jump\t// in\n    tag_57:\n        /* \"#utility.yul\":660:663   */\n      dup3\n        /* \"#utility.yul\":653:708   */\n      mstore\n        /* \"#utility.yul\":573:714   */\n      pop\n      pop\n      jump\t// out\n        /* \"#utility.yul\":720:952   */\n    tag_12:\n        /* \"#utility.yul\":818:822   */\n      0x00\n        /* \"#utility.yul\":856:858   */\n      0x20\n        /* \"#utility.yul\":845:854   */\n      dup3\n        /* \"#utility.yul\":841:859   */\n      add\n        /* \"#utility.yul\":833:859   */\n      swap1\n      pop\n        /* \"#utility.yul\":869:945   */\n      tag_59\n        /* \"#utility.yul\":942:943   */\n      0x00\n        /* \"#utility.yul\":931:940   */\n      dup4\n        /* \"#utility.yul\":927:944   */\n      add\n        /* \"#utility.yul\":918:924   */\n      dup5\n        /* \"#utility.yul\":869:945   */\n      tag_41\n      jump\t// in\n    tag_59:\n        /* \"#utility.yul\":720:952   */\n      swap3\n      swap2\n      pop\n      pop\n      jump\t// out\n        /* \"#utility.yul\":1039:1156   */\n    tag_43:\n        /* \"#utility.yul\":1148:1149   */\n      0x00\n        /* \"#utility.yul\":1145:1146   */\n      dup1\n        /* \"#utility.yul\":1138:1150   */\n      revert\n        /* \"#utility.yul\":1285:1391   */\n    tag_45:\n        /* \"#utility.yul\":1365:1366   */\n      0x02\n        /* \"#utility.yul\":1358:1363   */\n      dup2\n        /* \"#utility.yul\":1355:1367   */\n      lt\n        /* \"#utility.yul\":1345:1385   */\n      tag_64\n      jumpi\n        /* \"#utility.yul\":1381:1382   */\n      0x00\n        /* \"#utility.yul\":1378:1379   */\n      dup1\n        /* \"#utility.yul\":1371:1383   */\n      revert\n        /* \"#utility.yul\":1345:1385   */\n    tag_64:\n        /* \"#utility.yul\":1285:1391   */\n      pop\n      jump\t// out\n        /* \"#utility.yul\":1397:1550   */\n    tag_46:\n        /* \"#utility.yul\":1450:1455   */\n      0x00\n        /* \"#utility.yul\":1488:1494   */\n      dup2\n        /* \"#utility.yul\":1475:1495   */\n      calldataload\n        /* \"#utility.yul\":1466:1495   */\n      swap1\n      pop\n        /* \"#utility.yul\":1504:1544   */\n      tag_66\n        /* \"#utility.yul\":1538:1543   */\n      dup2\n        /* \"#utility.yul\":1504:1544   */\n      tag_45\n      jump\t// in\n    tag_66:\n        /* \"#utility.yul\":1397:1550   */\n      swap3\n      swap2\n      pop\n      pop\n      jump\t// out\n        /* \"#utility.yul\":1556:1899   */\n    tag_15:\n        /* \"#utility.yul\":1622:1628   */\n      0x00\n        /* \"#utility.yul\":1671:1673   */\n      0x20\n        /* \"#utility.yul\":1659:1668   */\n      dup3\n        /* \"#utility.yul\":1650:1657   */\n      dup5\n        /* \"#utility.yul\":1646:1669   */\n      sub\n        /* \"#utility.yul\":1642:1674   */\n      slt\n        /* \"#utility.yul\":1639:1758   */\n      iszero\n      tag_68\n      jumpi\n        /* \"#utility.yul\":1677:1756   */\n      tag_69\n      tag_43\n      jump\t// in\n    tag_69:\n        /* \"#utility.yul\":1639:1758   */\n    tag_68:\n        /* \"#utility.yul\":1797:1798   */\n      0x00\n        /* \"#utility.yul\":1822:1882   */\n      tag_70\n        /* \"#utility.yul\":1874:1881   */\n      dup5\n        /* \"#utility.yul\":1865:1871   */\n      dup3\n        /* \"#utility.yul\":1854:1863   */\n      dup6\n        /* \"#utility.yul\":1850:1872   */\n      add\n        /* \"#utility.yul\":1822:1882   */\n      tag_46\n      jump\t// in\n    tag_70:\n        /* \"#utility.yul\":1812:1882   */\n      swap2\n      pop\n        /* \"#utility.yul\":1768:1892   */\n      pop\n        /* \"#utility.yul\":1556:1899   */\n      swap3\n      swap2\n      pop\n      pop\n      jump\t// out\n\n    auxdata: 0xa26469706673582212205d7d3777e86a73a0c170772a30c08905dc02e0220debeb5730eb5dd020fab8c764736f6c634300081a0033\n}\n",
				"bytecode": {
					"linkReferences": {},
					"object": "6080604052348015600e575f80fd5b506102a48061001c5f395ff3fe608060405234801561000f575f80fd5b5060043610610060575f3560e01c80631865c57d1461006457806356de96db146100825780636626b26d1461009e57806367b7c034146100a8578063c19d93fb146100b2578063d826f88f146100d0575b5f80fd5b61006c6100da565b6040516100799190610203565b60405180910390f35b61009c60048036038101906100979190610243565b6100ee565b005b6100a6610119565b005b6100b0610143565b005b6100ba61016e565b6040516100c79190610203565b60405180910390f35b6100d861017e565b005b5f805f9054906101000a900460ff16905090565b805f806101000a81548160ff0219169083600181111561011157610110610190565b5b021790555050565b5f805f6101000a81548160ff0219169083600181111561013c5761013b610190565b5b0217905550565b60015f806101000a81548160ff0219169083600181111561016757610166610190565b5b0217905550565b5f8054906101000a900460ff1681565b5f806101000a81549060ff0219169055565b7f4e487b71000000000000000000000000000000000000000000000000000000005f52602160045260245ffd5b600281106101ce576101cd610190565b5b50565b5f8190506101de826101bd565b919050565b5f6101ed826101d1565b9050919050565b6101fd816101e3565b82525050565b5f6020820190506102165f8301846101f4565b92915050565b5f80fd5b6002811061022c575f80fd5b50565b5f8135905061023d81610220565b92915050565b5f602082840312156102585761025761021c565b5b5f6102658482850161022f565b9150509291505056fea26469706673582212205d7d3777e86a73a0c170772a30c08905dc02e0220debeb5730eb5dd020fab8c764736f6c634300081a0033",
					"opcodes": "PUSH1 0x80 PUSH1 0x40 MSTORE CALLVALUE DUP1 ISZERO PUSH1 0xE JUMPI PUSH0 DUP1 REVERT JUMPDEST POP PUSH2 0x2A4 DUP1 PUSH2 0x1C PUSH0 CODECOPY PUSH0 RETURN INVALID PUSH1 0x80 PUSH1 0x40 MSTORE CALLVALUE DUP1 ISZERO PUSH2 0xF JUMPI PUSH0 DUP1 REVERT JUMPDEST POP PUSH1 0x4 CALLDATASIZE LT PUSH2 0x60 JUMPI PUSH0 CALLDATALOAD PUSH1 0xE0 SHR DUP1 PUSH4 0x1865C57D EQ PUSH2 0x64 JUMPI DUP1 PUSH4 0x56DE96DB EQ PUSH2 0x82 JUMPI DUP1 PUSH4 0x6626B26D EQ PUSH2 0x9E JUMPI DUP1 PUSH4 0x67B7C034 EQ PUSH2 0xA8 JUMPI DUP1 PUSH4 0xC19D93FB EQ PUSH2 0xB2 JUMPI DUP1 PUSH4 0xD826F88F EQ PUSH2 0xD0 JUMPI JUMPDEST PUSH0 DUP1 REVERT JUMPDEST PUSH2 0x6C PUSH2 0xDA JUMP JUMPDEST PUSH1 0x40 MLOAD PUSH2 0x79 SWAP2 SWAP1 PUSH2 0x203 JUMP JUMPDEST PUSH1 0x40 MLOAD DUP1 SWAP2 SUB SWAP1 RETURN JUMPDEST PUSH2 0x9C PUSH1 0x4 DUP1 CALLDATASIZE SUB DUP2 ADD SWAP1 PUSH2 0x97 SWAP2 SWAP1 PUSH2 0x243 JUMP JUMPDEST PUSH2 0xEE JUMP JUMPDEST STOP JUMPDEST PUSH2 0xA6 PUSH2 0x119 JUMP JUMPDEST STOP JUMPDEST PUSH2 0xB0 PUSH2 0x143 JUMP JUMPDEST STOP JUMPDEST PUSH2 0xBA PUSH2 0x16E JUMP JUMPDEST PUSH1 0x40 MLOAD PUSH2 0xC7 SWAP2 SWAP1 PUSH2 0x203 JUMP JUMPDEST PUSH1 0x40 MLOAD DUP1 SWAP2 SUB SWAP1 RETURN JUMPDEST PUSH2 0xD8 PUSH2 0x17E JUMP JUMPDEST STOP JUMPDEST PUSH0 DUP1 PUSH0 SWAP1 SLOAD SWAP1 PUSH2 0x100 EXP SWAP1 DIV PUSH1 0xFF AND SWAP1 POP SWAP1 JUMP JUMPDEST DUP1 PUSH0 DUP1 PUSH2 0x100 EXP DUP2 SLOAD DUP2 PUSH1 0xFF MUL NOT AND SWAP1 DUP4 PUSH1 0x1 DUP2 GT ISZERO PUSH2 0x111 JUMPI PUSH2 0x110 PUSH2 0x190 JUMP JUMPDEST JUMPDEST MUL OR SWAP1 SSTORE POP POP JUMP JUMPDEST PUSH0 DUP1 PUSH0 PUSH2 0x100 EXP DUP2 SLOAD DUP2 PUSH1 0xFF MUL NOT AND SWAP1 DUP4 PUSH1 0x1 DUP2 GT ISZERO PUSH2 0x13C JUMPI PUSH2 0x13B PUSH2 0x190 JUMP JUMPDEST JUMPDEST MUL OR SWAP1 SSTORE POP JUMP JUMPDEST PUSH1 0x1 PUSH0 DUP1 PUSH2 0x100 EXP DUP2 SLOAD DUP2 PUSH1 0xFF MUL NOT AND SWAP1 DUP4 PUSH1 0x1 DUP2 GT ISZERO PUSH2 0x167 JUMPI PUSH2 0x166 PUSH2 0x190 JUMP JUMPDEST JUMPDEST MUL OR SWAP1 SSTORE POP JUMP JUMPDEST PUSH0 DUP1 SLOAD SWAP1 PUSH2 0x100 EXP SWAP1 DIV PUSH1 0xFF AND DUP2 JUMP JUMPDEST PUSH0 DUP1 PUSH2 0x100 EXP DUP2 SLOAD SWAP1 PUSH1 0xFF MUL NOT AND SWAP1 SSTORE JUMP JUMPDEST PUSH32 0x4E487B7100000000000000000000000000000000000000000000000000000000 PUSH0 MSTORE PUSH1 0x21 PUSH1 0x4 MSTORE PUSH1 0x24 PUSH0 REVERT JUMPDEST PUSH1 0x2 DUP2 LT PUSH2 0x1CE JUMPI PUSH2 0x1CD PUSH2 0x190 JUMP JUMPDEST JUMPDEST POP JUMP JUMPDEST PUSH0 DUP2 SWAP1 POP PUSH2 0x1DE DUP3 PUSH2 0x1BD JUMP JUMPDEST SWAP2 SWAP1 POP JUMP JUMPDEST PUSH0 PUSH2 0x1ED DUP3 PUSH2 0x1D1 JUMP JUMPDEST SWAP1 POP SWAP2 SWAP1 POP JUMP JUMPDEST PUSH2 0x1FD DUP2 PUSH2 0x1E3 JUMP JUMPDEST DUP3 MSTORE POP POP JUMP JUMPDEST PUSH0 PUSH1 0x20 DUP3 ADD SWAP1 POP PUSH2 0x216 PUSH0 DUP4 ADD DUP5 PUSH2 0x1F4 JUMP JUMPDEST SWAP3 SWAP2 POP POP JUMP JUMPDEST PUSH0 DUP1 REVERT JUMPDEST PUSH1 0x2 DUP2 LT PUSH2 0x22C JUMPI PUSH0 DUP1 REVERT JUMPDEST POP JUMP JUMPDEST PUSH0 DUP2 CALLDATALOAD SWAP1 POP PUSH2 0x23D DUP2 PUSH2 0x220 JUMP JUMPDEST SWAP3 SWAP2 POP POP JUMP JUMPDEST PUSH0 PUSH1 0x20 DUP3 DUP5 SUB SLT ISZERO PUSH2 0x258 JUMPI PUSH2 0x257 PUSH2 0x21C JUMP JUMPDEST JUMPDEST PUSH0 PUSH2 0x265 DUP5 DUP3 DUP6 ADD PUSH2 0x22F JUMP JUMPDEST SWAP2 POP POP SWAP3 SWAP2 POP POP JUMP INVALID LOG2 PUSH5 0x6970667358 0x22 SLT KECCAK256 TSTORE PUSH30 0x3777E86A73A0C170772A30C08905DC02E0220DEBEB5730EB5DD020FAB8C7 PUSH5 0x736F6C6343 STOP ADDMOD BYTE STOP CALLER "
				},
				"gasEstimates": {
					"creation": {
						"codeDepositCost": "135200",
						"executionCost": "181",
						"totalCost": "135381"
					},
					"external": {
						"getState()": "2539",
						"off()": "24450",
						"on()": "24473",
						"reset()": "24472",
						"setState(uint8)": "24645",
						"state()": "2617"
					}
				},
				"methodIdentifiers": {
					"getState()": "1865c57d",
					"off()": "6626b26d",
					"on()": "67b7c034",
					"reset()": "d826f88f",
					"setState(uint8)": "56de96db",
					"state()": "c19d93fb"
				}
			},
			"storageLayout": {
				"storage": [
					{
						"astId": 7,
						"contract": "contracts/EnumDemo.sol:EnumDemo",
						"label": "state",
						"offset": 0,
						"slot": "0",
						"type": "t_enum(State)4"
					}
				],
				"types": {
					"t_enum(State)4": {
						"encoding": "inplace",
						"label": "enum EnumDemo.State",
						"numberOfBytes": "1"
					}
				}
			},
			"userdoc": {
				"kind": "user",
				"methods": {},
				"version": 1
			}
		}
	}
}