{
	"data": {
		"bytecode": {
			"linkReferences": {},
			"object": "608060405260405180608001604052806040518060400160405280600881526020017f7869616f67616e6700000000000000000000000000000000000000000000000081525081526020016040518060400160405280600481526020017f6d616c65000000000000000000000000000000000000000000000000000000008152508152602001601260ff16815260200160405180604001604052806040518060400160405280600881526020017f7377696d6d696e6700000000000000000000000000000000000000000000000081525081526020016040518060400160405280600a81526020017f6261736b657462616c6c000000000000000000000000000000000000000000008152508152508152505f80820151815f0190816101259190610488565b50602082015181600101908161013b9190610488565b506040820151816002015f6101000a81548160ff021916908360ff160217905550606082015181600301906002610173929190610187565b505050348015610181575f80fd5b50610557565b82600281019282156101c2579160200282015b828111156101c15782518290816101b19190610488565b509160200191906001019061019a565b5b5090506101cf91906101d3565b5090565b5b808211156101f2575f81816101e991906101f6565b506001016101d4565b5090565b508054610202906102b2565b5f825580601f106102135750610230565b601f0160209004905f5260205f209081019061022f9190610233565b5b50565b5b8082111561024a575f815f905550600101610234565b5090565b5f81519050919050565b7f4e487b71000000000000000000000000000000000000000000000000000000005f52604160045260245ffd5b7f4e487b71000000000000000000000000000000000000000000000000000000005f52602260045260245ffd5b5f60028204905060018216806102c957607f821691505b6020821081036102dc576102db610285565b5b50919050565b5f819050815f5260205f209050919050565b5f6020601f8301049050919050565b5f82821b905092915050565b5f6008830261033e7fffffffffffffffffffffffffffffffffffffffffffffffffffffffffffffffff82610303565b6103488683610303565b95508019841693508086168417925050509392505050565b5f819050919050565b5f819050919050565b5f61038c61038761038284610360565b610369565b610360565b9050919050565b5f819050919050565b6103a583610372565b6103b96103b182610393565b84845461030f565b825550505050565b5f90565b6103cd6103c1565b6103d881848461039c565b505050565b5b818110156103fb576103f05f826103c5565b6001810190506103de565b5050565b601f82111561044057610411816102e2565b61041a846102f4565b81016020851015610429578190505b61043d610435856102f4565b8301826103dd565b50505b505050565b5f82821c905092915050565b5f6104605f1984600802610445565b1980831691505092915050565b5f6104788383610451565b9150826002028217905092915050565b6104918261024e565b67ffffffffffffffff8111156104aa576104a9610258565b5b6104b482546102b2565b6104bf8282856103ff565b5f60209050601f8311600181146104f0575f84156104de578287015190505b6104e8858261046d565b86555061054f565b601f1984166104fe866102e2565b5f5b8281101561052557848901518255600182019150602085019450602081019050610500565b86831015610542578489015161053e601f891682610451565b8355505b6001600288020188555050505b505050505050565b6109b8806105645f395ff3fe608060405234801561000f575f80fd5b506004361061003f575f3560e01c80638605d2a8146100435780638b6f4dc01461005f578063f76606101461007b575b5f80fd5b61005d600480360381019061005891906103e7565b610099565b005b61007960048036038101906100749190610444565b6100c5565b005b6100836100dc565b6040516100909190610637565b60405180910390f35b81815f60030185600281106100b1576100b0610657565b5b0191826100bf9291906108b5565b50505050565b81815f800191826100d79291906108b5565b505050565b6100e46102f4565b5f6040518060800160405290815f820180546100ff906106e8565b80601f016020809104026020016040519081016040528092919081815260200182805461012b906106e8565b80156101765780601f1061014d57610100808354040283529160200191610176565b820191905f5260205f20905b81548152906001019060200180831161015957829003601f168201915b5050505050815260200160018201805461018f906106e8565b80601f01602080910402602001604051908101604052809291908181526020018280546101bb906106e8565b80156102065780601f106101dd57610100808354040283529160200191610206565b820191905f5260205f20905b8154815290600101906020018083116101e957829003601f168201915b50505050508152602001600282015f9054906101000a900460ff1660ff1660ff16815260200160038201600280602002604051908101604052809291905f905b828210156102e757838201805461025c906106e8565b80601f0160208091040260200160405190810160405280929190818152602001828054610288906106e8565b80156102d35780601f106102aa576101008083540402835291602001916102d3565b820191905f5260205f20905b8154815290600101906020018083116102b657829003601f168201915b505050505081526020019060010190610246565b5050505081525050905090565b604051806080016040528060608152602001606081526020015f60ff16815260200161031e610324565b81525090565b60405180604001604052806002905b60608152602001906001900390816103335790505090565b5f80fd5b5f80fd5b5f819050919050565b61036581610353565b811461036f575f80fd5b50565b5f813590506103808161035c565b92915050565b5f80fd5b5f80fd5b5f80fd5b5f8083601f8401126103a7576103a6610386565b5b8235905067ffffffffffffffff8111156103c4576103c361038a565b5b6020830191508360018202830111156103e0576103df61038e565b5b9250929050565b5f805f604084860312156103fe576103fd61034b565b5b5f61040b86828701610372565b935050602084013567ffffffffffffffff81111561042c5761042b61034f565b5b61043886828701610392565b92509250509250925092565b5f806020838503121561045a5761045961034b565b5b5f83013567ffffffffffffffff8111156104775761047661034f565b5b61048385828601610392565b92509250509250929050565b5f81519050919050565b5f82825260208201905092915050565b8281835e5f83830152505050565b5f601f19601f8301169050919050565b5f6104d18261048f565b6104db8185610499565b93506104eb8185602086016104a9565b6104f4816104b7565b840191505092915050565b5f60ff82169050919050565b610514816104ff565b82525050565b5f60029050919050565b5f81905092915050565b5f819050919050565b5f61054283836104c7565b905092915050565b5f602082019050919050565b5f6105608261051a565b61056a8185610524565b93508360208202850161057c8561052e565b805f5b858110156105b757848403895281516105988582610537565b94506105a38361054a565b925060208a0199505060018101905061057f565b50829750879550505050505092915050565b5f608083015f8301518482035f8601526105e382826104c7565b915050602083015184820360208601526105fd82826104c7565b9150506040830151610612604086018261050b565b506060830151848203606086015261062a8282610556565b9150508091505092915050565b5f6020820190508181035f83015261064f81846105c9565b905092915050565b7f4e487b71000000000000000000000000000000000000000000000000000000005f52603260045260245ffd5b5f82905092915050565b7f4e487b71000000000000000000000000000000000000000000000000000000005f52604160045260245ffd5b7f4e487b71000000000000000000000000000000000000000000000000000000005f52602260045260245ffd5b5f60028204905060018216806106ff57607f821691505b602082108103610712576107116106bb565b5b50919050565b5f819050815f5260205f209050919050565b5f6020601f8301049050919050565b5f82821b905092915050565b5f600883026107747fffffffffffffffffffffffffffffffffffffffffffffffffffffffffffffffff82610739565b61077e8683610739565b95508019841693508086168417925050509392505050565b5f819050919050565b5f6107b96107b46107af84610353565b610796565b610353565b9050919050565b5f819050919050565b6107d28361079f565b6107e66107de826107c0565b848454610745565b825550505050565b5f90565b6107fa6107ee565b6108058184846107c9565b505050565b5b818110156108285761081d5f826107f2565b60018101905061080b565b5050565b601f82111561086d5761083e81610718565b6108478461072a565b81016020851015610856578190505b61086a6108628561072a565b83018261080a565b50505b505050565b5f82821c905092915050565b5f61088d5f1984600802610872565b1980831691505092915050565b5f6108a5838361087e565b9150826002028217905092915050565b6108bf8383610684565b67ffffffffffffffff8111156108d8576108d761068e565b5b6108e282546106e8565b6108ed82828561082c565b5f601f83116001811461091a575f8415610908578287013590505b610912858261089a565b865550610979565b601f19841661092886610718565b5f5b8281101561094f5784890135825560018201915060208501945060208101905061092a565b8683101561096c5784890135610968601f89168261087e565b8355505b6001600288020188555050505b5050505050505056fea264697066735822122064fc3a05eab0610a31f92d1bdd009ed208ae402ef150e2e4f567677cd987589364736f6c634300081a0033",
			"opcodes": "PUSH1 0x80 PUSH1 0x40 MSTORE PUSH1 0x40 MLOAD DUP1 PUSH1 0x80 ADD PUSH1 0x40 MSTORE DUP1 PUSH1 0x40 MLOAD DUP1 PUSH1 0x40 ADD PUSH1 0x40 MSTORE DUP1 PUSH1 0x8 DUP2 MSTORE PUSH1 0x20 ADD PUSH32 0x7869616F67616E67000000000000000000000000000000000000000000000000 DUP2 MSTORE POP DUP2 MSTORE PUSH1 0x20 ADD PUSH1 0x40 MLOAD DUP1 PUSH1 0x40 ADD PUSH1 0x40 MSTORE DUP1 PUSH1 0x4 DUP2 MSTORE PUSH1 0x20 ADD PUSH32 0x6D616C6500000000000000000000000000000000000000000000000000000000 DUP2 MSTORE POP DUP2 MSTORE PUSH1 0x20 ADD PUSH1 0x12 PUSH1 0xFF AND DUP2 MSTORE PUSH1 0x20 ADD PUSH1 0x40 MLOAD DUP1 PUSH1 0x40 ADD PUSH1 0x40 MSTORE DUP1 PUSH1 0x40 MLOAD DUP1 PUSH1 0x40 ADD PUSH1 0x40 MSTORE DUP1 PUSH1 0x8 DUP2 MSTORE PUSH1 0x20 ADD PUSH32 0x7377696D6D696E67000000000000000000000000000000000000000000000000 DUP2 MSTORE POP DUP2 MSTORE PUSH1 0x20 ADD PUSH1 0x40 MLOAD DUP1 PUSH1 0x40 ADD PUSH1 0x40 MSTORE DUP1 PUSH1 0xA DUP2 MSTORE PUSH1 0x20 ADD PUSH32 0x6261736B657462616C6C00000000000000000000000000000000000000000000 DUP2 MSTORE POP DUP2 MSTORE POP DUP2 MSTORE POP PUSH0 DUP1 DUP3 ADD MLOAD DUP2 PUSH0 ADD SWAP1 DUP2 PUSH2 0x125 SWAP2 SWAP1 PUSH2 0x488 JUMP JUMPDEST POP PUSH1 0x20 DUP3 ADD MLOAD DUP2 PUSH1 0x1 ADD SWAP1 DUP2 PUSH2 0x13B SWAP2 SWAP1 PUSH2 0x488 JUMP JUMPDEST POP PUSH1 0x40 DUP3 ADD MLOAD DUP2 PUSH1 0x2 ADD PUSH0 PUSH2 0x100 EXP DUP2 SLOAD DUP2 PUSH1 0xFF MUL NOT AND SWAP1 DUP4 PUSH1 0xFF AND MUL OR SWAP1 SSTORE POP PUSH1 0x60 DUP3 ADD MLOAD DUP2 PUSH1 0x3 ADD SWAP1 PUSH1 0x2 PUSH2 0x173 SWAP3 SWAP2 SWAP1 PUSH2 0x187 JUMP JUMPDEST POP POP POP CALLVALUE DUP1 ISZERO PUSH2 0x181 JUMPI PUSH0 DUP1 REVERT JUMPDEST POP PUSH2 0x557 JUMP JUMPDEST DUP3 PUSH1 0x2 DUP2 ADD SWAP3 DUP3 ISZERO PUSH2 0x1C2 JUMPI SWAP2 PUSH1 0x20 MUL DUP3 ADD JUMPDEST DUP3 DUP2 GT ISZERO PUSH2 0x1C1 JUMPI DUP3 MLOAD DUP3 SWAP1 DUP2 PUSH2 0x1B1 SWAP2 SWAP1 PUSH2 0x488 JUMP JUMPDEST POP SWAP2 PUSH1 0x20 ADD SWAP2 SWAP1 PUSH1 0x1 ADD SWAP1 PUSH2 0x19A JUMP JUMPDEST JUMPDEST POP SWAP1 POP PUSH2 0x1CF SWAP2 SWAP1 PUSH2 0x1D3 JUMP JUMPDEST POP SWAP1 JUMP JUMPDEST JUMPDEST DUP1 DUP3 GT ISZERO PUSH2 0x1F2 JUMPI PUSH0 DUP2 DUP2 PUSH2 0x1E9 SWAP2 SWAP1 PUSH2 0x1F6 JUMP JUMPDEST POP PUSH1 0x1 ADD PUSH2 0x1D4 JUMP JUMPDEST POP SWAP1 JUMP JUMPDEST POP DUP1 SLOAD PUSH2 0x202 SWAP1 PUSH2 0x2B2 JUMP JUMPDEST PUSH0 DUP3 SSTORE DUP1 PUSH1 0x1F LT PUSH2 0x213 JUMPI POP PUSH2 0x230 JUMP JUMPDEST PUSH1 0x1F ADD PUSH1 0x20 SWAP1 DIV SWAP1 PUSH0 MSTORE PUSH1 0x20 PUSH0 KECCAK256 SWAP1 DUP2 ADD SWAP1 PUSH2 0x22F SWAP2 SWAP1 PUSH2 0x233 JUMP JUMPDEST JUMPDEST POP JUMP JUMPDEST JUMPDEST DUP1 DUP3 GT ISZERO PUSH2 0x24A JUMPI PUSH0 DUP2 PUSH0 SWAP1 SSTORE POP PUSH1 0x1 ADD PUSH2 0x234 JUMP JUMPDEST POP SWAP1 JUMP JUMPDEST PUSH0 DUP2 MLOAD SWAP1 POP SWAP2 SWAP1 POP JUMP JUMPDEST PUSH32 0x4E487B7100000000000000000000000000000000000000000000000000000000 PUSH0 MSTORE PUSH1 0x41 PUSH1 0x4 MSTORE PUSH1 0x24 PUSH0 REVERT JUMPDEST PUSH32 0x4E487B7100000000000000000000000000000000000000000000000000000000 PUSH0 MSTORE PUSH1 0x22 PUSH1 0x4 MSTORE PUSH1 0x24 PUSH0 REVERT JUMPDEST PUSH0 PUSH1 0x2 DUP3 DIV SWAP1 POP PUSH1 0x1 DUP3 AND DUP1 PUSH2 0x2C9 JUMPI PUSH1 0x7F DUP3 AND SWAP2 POP JUMPDEST PUSH1 0x20 DUP3 LT DUP2 SUB PUSH2 0x2DC JUMPI PUSH2 0x2DB PUSH2 0x285 JUMP JUMPDEST JUMPDEST POP SWAP2 SWAP1 POP JUMP JUMPDEST PUSH0 DUP2 SWAP1 POP DUP2 PUSH0 MSTORE PUSH1 0x20 PUSH0 KECCAK256 SWAP1 POP SWAP2 SWAP1 POP JUMP JUMPDEST PUSH0 PUSH1 0x20 PUSH1 0x1F DUP4 ADD DIV SWAP1 POP SWAP2 SWAP1 POP JUMP JUMPDEST PUSH0 DUP3 DUP3 SHL SWAP1 POP SWAP3 SWAP2 POP POP JUMP JUMPDEST PUSH0 PUSH1 0x8 DUP4 MUL PUSH2 0x33E PUSH32 0xFFFFFFFFFFFFFFFFFFFFFFFFFFFFFFFFFFFFFFFFFFFFFFFFFFFFFFFFFFFFFFFF DUP3 PUSH2 0x303 JUMP JUMPDEST PUSH2 0x348 DUP7 DUP4 PUSH2 0x303 JUMP JUMPDEST SWAP6 POP DUP1 NOT DUP5 AND SWAP4 POP DUP1 DUP7 AND DUP5 OR SWAP3 POP POP POP SWAP4 SWAP3 POP POP POP JUMP JUMPDEST PUSH0 DUP2 SWAP1 POP SWAP2 SWAP1 POP JUMP JUMPDEST PUSH0 DUP2 SWAP1 POP SWAP2 SWAP1 POP JUMP JUMPDEST PUSH0 PUSH2 0x38C PUSH2 0x387 PUSH2 0x382 DUP5 PUSH2 0x360 JUMP JUMPDEST PUSH2 0x369 JUMP JUMPDEST PUSH2 0x360 JUMP JUMPDEST SWAP1 POP SWAP2 SWAP1 POP JUMP JUMPDEST PUSH0 DUP2 SWAP1 POP SWAP2 SWAP1 POP JUMP JUMPDEST PUSH2 0x3A5 DUP4 PUSH2 0x372 JUMP JUMPDEST PUSH2 0x3B9 PUSH2 0x3B1 DUP3 PUSH2 0x393 JUMP JUMPDEST DUP5 DUP5 SLOAD PUSH2 0x30F JUMP JUMPDEST DUP3 SSTORE POP POP POP POP JUMP JUMPDEST PUSH0 SWAP1 JUMP JUMPDEST PUSH2 0x3CD PUSH2 0x3C1 JUMP JUMPDEST PUSH2 0x3D8 DUP2 DUP5 DUP5 PUSH2 0x39C JUMP JUMPDEST POP POP POP JUMP JUMPDEST JUMPDEST DUP2 DUP2 LT ISZERO PUSH2 0x3FB JUMPI PUSH2 0x3F0 PUSH0 DUP3 PUSH2 0x3C5 JUMP JUMPDEST PUSH1 0x1 DUP2 ADD SWAP1 POP PUSH2 0x3DE JUMP JUMPDEST POP POP JUMP JUMPDEST PUSH1 0x1F DUP3 GT ISZERO PUSH2 0x440 JUMPI PUSH2 0x411 DUP2 PUSH2 0x2E2 JUMP JUMPDEST PUSH2 0x41A DUP5 PUSH2 0x2F4 JUMP JUMPDEST DUP2 ADD PUSH1 0x20 DUP6 LT ISZERO PUSH2 0x429 JUMPI DUP2 SWAP1 POP JUMPDEST PUSH2 0x43D PUSH2 0x435 DUP6 PUSH2 0x2F4 JUMP JUMPDEST DUP4 ADD DUP3 PUSH2 0x3DD JUMP JUMPDEST POP POP JUMPDEST POP POP POP JUMP JUMPDEST PUSH0 DUP3 DUP3 SHR SWAP1 POP SWAP3 SWAP2 POP POP JUMP JUMPDEST PUSH0 PUSH2 0x460 PUSH0 NOT DUP5 PUSH1 0x8 MUL PUSH2 0x445 JUMP JUMPDEST NOT DUP1 DUP4 AND SWAP2 POP POP SWAP3 SWAP2 POP POP JUMP JUMPDEST PUSH0 PUSH2 0x478 DUP4 DUP4 PUSH2 0x451 JUMP JUMPDEST SWAP2 POP DUP3 PUSH1 0x2 MUL DUP3 OR SWAP1 POP SWAP3 SWAP2 POP POP JUMP JUMPDEST PUSH2 0x491 DUP3 PUSH2 0x24E JUMP JUMPDEST PUSH8 0xFFFFFFFFFFFFFFFF DUP2 GT ISZERO PUSH2 0x4AA JUMPI PUSH2 0x4A9 PUSH2 0x258 JUMP JUMPDEST JUMPDEST PUSH2 0x4B4 DUP3 SLOAD PUSH2 0x2B2 JUMP JUMPDEST PUSH2 0x4BF DUP3 DUP3 DUP6 PUSH2 0x3FF JUMP JUMPDEST PUSH0 PUSH1 0x20 SWAP1 POP PUSH1 0x1F DUP4 GT PUSH1 0x1 DUP2 EQ PUSH2 0x4F0 JUMPI PUSH0 DUP5 ISZERO PUSH2 0x4DE JUMPI DUP3 DUP8 ADD MLOAD SWAP1 POP JUMPDEST PUSH2 0x4E8 DUP6 DUP3 PUSH2 0x46D JUMP JUMPDEST DUP7 SSTORE POP PUSH2 0x54F JUMP JUMPDEST PUSH1 0x1F NOT DUP5 AND PUSH2 0x4FE DUP7 PUSH2 0x2E2 JUMP JUMPDEST PUSH0 JUMPDEST DUP3 DUP2 LT ISZERO PUSH2 0x525 JUMPI DUP5 DUP10 ADD MLOAD DUP3 SSTORE PUSH1 0x1 DUP3 ADD SWAP2 POP PUSH1 0x20 DUP6 ADD SWAP5 POP PUSH1 0x20 DUP2 ADD SWAP1 POP PUSH2 0x500 JUMP JUMPDEST DUP7 DUP4 LT ISZERO PUSH2 0x542 JUMPI DUP5 DUP10 ADD MLOAD PUSH2 0x53E PUSH1 0x1F DUP10 AND DUP3 PUSH2 0x451 JUMP JUMPDEST DUP4 SSTORE POP JUMPDEST PUSH1 0x1 PUSH1 0x2 DUP9 MUL ADD DUP9 SSTORE POP POP POP JUMPDEST POP POP POP POP POP POP JUMP JUMPDEST PUSH2 0x9B8 DUP1 PUSH2 0x564 PUSH0 CODECOPY PUSH0 RETURN INVALID PUSH1 0x80 PUSH1 0x40 MSTORE CALLVALUE DUP1 ISZERO PUSH2 0xF JUMPI PUSH0 DUP1 REVERT JUMPDEST POP PUSH1 0x4 CALLDATASIZE LT PUSH2 0x3F JUMPI PUSH0 CALLDATALOAD PUSH1 0xE0 SHR DUP1 PUSH4 0x8605D2A8 EQ PUSH2 0x43 JUMPI DUP1 PUSH4 0x8B6F4DC0 EQ PUSH2 0x5F JUMPI DUP1 PUSH4 0xF7660610 EQ PUSH2 0x7B JUMPI JUMPDEST PUSH0 DUP1 REVERT JUMPDEST PUSH2 0x5D PUSH1 0x4 DUP1 CALLDATASIZE SUB DUP2 ADD SWAP1 PUSH2 0x58 SWAP2 SWAP1 PUSH2 0x3E7 JUMP JUMPDEST PUSH2 0x99 JUMP JUMPDEST STOP JUMPDEST PUSH2 0x79 PUSH1 0x4 DUP1 CALLDATASIZE SUB DUP2 ADD SWAP1 PUSH2 0x74 SWAP2 SWAP1 PUSH2 0x444 JUMP JUMPDEST PUSH2 0xC5 JUMP JUMPDEST STOP JUMPDEST PUSH2 0x83 PUSH2 0xDC JUMP JUMPDEST PUSH1 0x40 MLOAD PUSH2 0x90 SWAP2 SWAP1 PUSH2 0x637 JUMP JUMPDEST PUSH1 0x40 MLOAD DUP1 SWAP2 SUB SWAP1 RETURN JUMPDEST DUP2 DUP2 PUSH0 PUSH1 0x3 ADD DUP6 PUSH1 0x2 DUP2 LT PUSH2 0xB1 JUMPI PUSH2 0xB0 PUSH2 0x657 JUMP JUMPDEST JUMPDEST ADD SWAP2 DUP3 PUSH2 0xBF SWAP3 SWAP2 SWAP1 PUSH2 0x8B5 JUMP JUMPDEST POP POP POP POP JUMP JUMPDEST DUP2 DUP2 PUSH0 DUP1 ADD SWAP2 DUP3 PUSH2 0xD7 SWAP3 SWAP2 SWAP1 PUSH2 0x8B5 JUMP JUMPDEST POP POP POP JUMP JUMPDEST PUSH2 0xE4 PUSH2 0x2F4 JUMP JUMPDEST PUSH0 PUSH1 0x40 MLOAD DUP1 PUSH1 0x80 ADD PUSH1 0x40 MSTORE SWAP1 DUP2 PUSH0 DUP3 ADD DUP1 SLOAD PUSH2 0xFF SWAP1 PUSH2 0x6E8 JUMP JUMPDEST DUP1 PUSH1 0x1F ADD PUSH1 0x20 DUP1 SWAP2 DIV MUL PUSH1 0x20 ADD PUSH1 0x40 MLOAD SWAP1 DUP2 ADD PUSH1 0x40 MSTORE DUP1 SWAP3 SWAP2 SWAP1 DUP2 DUP2 MSTORE PUSH1 0x20 ADD DUP3 DUP1 SLOAD PUSH2 0x12B SWAP1 PUSH2 0x6E8 JUMP JUMPDEST DUP1 ISZERO PUSH2 0x176 JUMPI DUP1 PUSH1 0x1F LT PUSH2 0x14D JUMPI PUSH2 0x100 DUP1 DUP4 SLOAD DIV MUL DUP4 MSTORE SWAP2 PUSH1 0x20 ADD SWAP2 PUSH2 0x176 JUMP JUMPDEST DUP3 ADD SWAP2 SWAP1 PUSH0 MSTORE PUSH1 0x20 PUSH0 KECCAK256 SWAP1 JUMPDEST DUP2 SLOAD DUP2 MSTORE SWAP1 PUSH1 0x1 ADD SWAP1 PUSH1 0x20 ADD DUP1 DUP4 GT PUSH2 0x159 JUMPI DUP3 SWAP1 SUB PUSH1 0x1F AND DUP3 ADD SWAP2 JUMPDEST POP POP POP POP POP DUP2 MSTORE PUSH1 0x20 ADD PUSH1 0x1 DUP3 ADD DUP1 SLOAD PUSH2 0x18F SWAP1 PUSH2 0x6E8 JUMP JUMPDEST DUP1 PUSH1 0x1F ADD PUSH1 0x20 DUP1 SWAP2 DIV MUL PUSH1 0x20 ADD PUSH1 0x40 MLOAD SWAP1 DUP2 ADD PUSH1 0x40 MSTORE DUP1 SWAP3 SWAP2 SWAP1 DUP2 DUP2 MSTORE PUSH1 0x20 ADD DUP3 DUP1 SLOAD PUSH2 0x1BB SWAP1 PUSH2 0x6E8 JUMP JUMPDEST DUP1 ISZERO PUSH2 0x206 JUMPI DUP1 PUSH1 0x1F LT PUSH2 0x1DD JUMPI PUSH2 0x100 DUP1 DUP4 SLOAD DIV MUL DUP4 MSTORE SWAP2 PUSH1 0x20 ADD SWAP2 PUSH2 0x206 JUMP JUMPDEST DUP3 ADD SWAP2 SWAP1 PUSH0 MSTORE PUSH1 0x20 PUSH0 KECCAK256 SWAP1 JUMPDEST DUP2 SLOAD DUP2 MSTORE SWAP1 PUSH1 0x1 ADD SWAP1 PUSH1 0x20 ADD DUP1 DUP4 GT PUSH2 0x1E9 JUMPI DUP3 SWAP1 SUB PUSH1 0x1F AND DUP3 ADD SWAP2 JUMPDEST POP POP POP POP POP DUP2 MSTORE PUSH1 0x20 ADD PUSH1 0x2 DUP3 ADD PUSH0 SWAP1 SLOAD SWAP1 PUSH2 0x100 EXP SWAP1 DIV PUSH1 0xFF AND PUSH1 0xFF AND PUSH1 0xFF AND DUP2 MSTORE PUSH1 0x20 ADD PUSH1 0x3 DUP3 ADD PUSH1 0x2 DUP1 PUSH1 0x20 MUL PUSH1 0x40 MLOAD SWAP1 DUP2 ADD PUSH1 0x40 MSTORE DUP1 SWAP3 SWAP2 SWAP1 PUSH0 SWAP1 JUMPDEST DUP3 DUP3 LT ISZERO PUSH2 0x2E7 JUMPI DUP4 DUP3 ADD DUP1 SLOAD PUSH2 0x25C SWAP1 PUSH2 0x6E8 JUMP JUMPDEST DUP1 PUSH1 0x1F ADD PUSH1 0x20 DUP1 SWAP2 DIV MUL PUSH1 0x20 ADD PUSH1 0x40 MLOAD SWAP1 DUP2 ADD PUSH1 0x40 MSTORE DUP1 SWAP3 SWAP2 SWAP1 DUP2 DUP2 MSTORE PUSH1 0x20 ADD DUP3 DUP1 SLOAD PUSH2 0x288 SWAP1 PUSH2 0x6E8 JUMP JUMPDEST DUP1 ISZERO PUSH2 0x2D3 JUMPI DUP1 PUSH1 0x1F LT PUSH2 0x2AA JUMPI PUSH2 0x100 DUP1 DUP4 SLOAD DIV MUL DUP4 MSTORE SWAP2 PUSH1 0x20 ADD SWAP2 PUSH2 0x2D3 JUMP JUMPDEST DUP3 ADD SWAP2 SWAP1 PUSH0 MSTORE PUSH1 0x20 PUSH0 KECCAK256 SWAP1 JUMPDEST DUP2 SLOAD DUP2 MSTORE SWAP1 PUSH1 0x1 ADD SWAP1 PUSH1 0x20 ADD DUP1 DUP4 GT PUSH2 0x2B6 JUMPI DUP3 SWAP1 SUB PUSH1 0x1F AND DUP3 ADD SWAP2 JUMPDEST POP POP POP POP POP DUP2 MSTORE PUSH1 0x20 ADD SWAP1 PUSH1 0x1 ADD SWAP1 PUSH2 0x246 JUMP JUMPDEST POP POP POP POP DUP2 MSTORE POP POP SWAP1 POP SWAP1 JUMP JUMPDEST PUSH1 0x40 MLOAD DUP1 PUSH1 0x80 ADD PUSH1 0x40 MSTORE DUP1 PUSH1 0x60 DUP2 MSTORE PUSH1 0x20 ADD PUSH1 0x60 DUP2 MSTORE PUSH1 0x20 ADD PUSH0 PUSH1 0xFF AND DUP2 MSTORE PUSH1 0x20 ADD PUSH2 0x31E PUSH2 0x324 JUMP JUMPDEST DUP2 MSTORE POP SWAP1 JUMP JUMPDEST PUSH1 0x40 MLOAD DUP1 PUSH1 0x40 ADD PUSH1 0x40 MSTORE DUP1 PUSH1 0x2 SWAP1 JUMPDEST PUSH1 0x60 DUP2 MSTORE PUSH1 0x20 ADD SWAP1 PUSH1 0x1 SWAP1 SUB SWAP1 DUP2 PUSH2 0x333 JUMPI SWAP1 POP POP SWAP1 JUMP JUMPDEST PUSH0 DUP1 REVERT JUMPDEST PUSH0 DUP1 REVERT JUMPDEST PUSH0 DUP2 SWAP1 POP SWAP2 SWAP1 POP JUMP JUMPDEST PUSH2 0x365 DUP2 PUSH2 0x353 JUMP JUMPDEST DUP2 EQ PUSH2 0x36F JUMPI PUSH0 DUP1 REVERT JUMPDEST POP JUMP JUMPDEST PUSH0 DUP2 CALLDATALOAD SWAP1 POP PUSH2 0x380 DUP2 PUSH2 0x35C JUMP JUMPDEST SWAP3 SWAP2 POP POP JUMP JUMPDEST PUSH0 DUP1 REVERT JUMPDEST PUSH0 DUP1 REVERT JUMPDEST PUSH0 DUP1 REVERT JUMPDEST PUSH0 DUP1 DUP4 PUSH1 0x1F DUP5 ADD SLT PUSH2 0x3A7 JUMPI PUSH2 0x3A6 PUSH2 0x386 JUMP JUMPDEST JUMPDEST DUP3 CALLDATALOAD SWAP1 POP PUSH8 0xFFFFFFFFFFFFFFFF DUP2 GT ISZERO PUSH2 0x3C4 JUMPI PUSH2 0x3C3 PUSH2 0x38A JUMP JUMPDEST JUMPDEST PUSH1 0x20 DUP4 ADD SWAP2 POP DUP4 PUSH1 0x1 DUP3 MUL DUP4 ADD GT ISZERO PUSH2 0x3E0 JUMPI PUSH2 0x3DF PUSH2 0x38E JUMP JUMPDEST JUMPDEST SWAP3 POP SWAP3 SWAP1 POP JUMP JUMPDEST PUSH0 DUP1 PUSH0 PUSH1 0x40 DUP5 DUP7 SUB SLT ISZERO PUSH2 0x3FE JUMPI PUSH2 0x3FD PUSH2 0x34B JUMP JUMPDEST JUMPDEST PUSH0 PUSH2 0x40B DUP7 DUP3 DUP8 ADD PUSH2 0x372 JUMP JUMPDEST SWAP4 POP POP PUSH1 0x20 DUP5 ADD CALLDATALOAD PUSH8 0xFFFFFFFFFFFFFFFF DUP2 GT ISZERO PUSH2 0x42C JUMPI PUSH2 0x42B PUSH2 0x34F JUMP JUMPDEST JUMPDEST PUSH2 0x438 DUP7 DUP3 DUP8 ADD PUSH2 0x392 JUMP JUMPDEST SWAP3 POP SWAP3 POP POP SWAP3 POP SWAP3 POP SWAP3 JUMP JUMPDEST PUSH0 DUP1 PUSH1 0x20 DUP4 DUP6 SUB SLT ISZERO PUSH2 0x45A JUMPI PUSH2 0x459 PUSH2 0x34B JUMP JUMPDEST JUMPDEST PUSH0 DUP4 ADD CALLDATALOAD PUSH8 0xFFFFFFFFFFFFFFFF DUP2 GT ISZERO PUSH2 0x477 JUMPI PUSH2 0x476 PUSH2 0x34F JUMP JUMPDEST JUMPDEST PUSH2 0x483 DUP6 DUP3 DUP7 ADD PUSH2 0x392 JUMP JUMPDEST SWAP3 POP SWAP3 POP POP SWAP3 POP SWAP3 SWAP1 POP JUMP JUMPDEST PUSH0 DUP2 MLOAD SWAP1 POP SWAP2 SWAP1 POP JUMP JUMPDEST PUSH0 DUP3 DUP3 MSTORE PUSH1 0x20 DUP3 ADD SWAP1 POP SWAP3 SWAP2 POP POP JUMP JUMPDEST DUP3 DUP2 DUP4 MCOPY PUSH0 DUP4 DUP4 ADD MSTORE POP POP POP JUMP JUMPDEST PUSH0 PUSH1 0x1F NOT PUSH1 0x1F DUP4 ADD AND SWAP1 POP SWAP2 SWAP1 POP JUMP JUMPDEST PUSH0 PUSH2 0x4D1 DUP3 PUSH2 0x48F JUMP JUMPDEST PUSH2 0x4DB DUP2 DUP6 PUSH2 0x499 JUMP JUMPDEST SWAP4 POP PUSH2 0x4EB DUP2 DUP6 PUSH1 0x20 DUP7 ADD PUSH2 0x4A9 JUMP JUMPDEST PUSH2 0x4F4 DUP2 PUSH2 0x4B7 JUMP JUMPDEST DUP5 ADD SWAP2 POP POP SWAP3 SWAP2 POP POP JUMP JUMPDEST PUSH0 PUSH1 0xFF DUP3 AND SWAP1 POP SWAP2 SWAP1 POP JUMP JUMPDEST PUSH2 0x514 DUP2 PUSH2 0x4FF JUMP JUMPDEST DUP3 MSTORE POP POP JUMP JUMPDEST PUSH0 PUSH1 0x2 SWAP1 POP SWAP2 SWAP1 POP JUMP JUMPDEST PUSH0 DUP2 SWAP1 POP SWAP3 SWAP2 POP POP JUMP JUMPDEST PUSH0 DUP2 SWAP1 POP SWAP2 SWAP1 POP JUMP JUMPDEST PUSH0 PUSH2 0x542 DUP4 DUP4 PUSH2 0x4C7 JUMP JUMPDEST SWAP1 POP SWAP3 SWAP2 POP POP JUMP JUMPDEST PUSH0 PUSH1 0x20 DUP3 ADD SWAP1 POP SWAP2 SWAP1 POP JUMP JUMPDEST PUSH0 PUSH2 0x560 DUP3 PUSH2 0x51A JUMP JUMPDEST PUSH2 0x56A DUP2 DUP6 PUSH2 0x524 JUMP JUMPDEST SWAP4 POP DUP4 PUSH1 0x20 DUP3 MUL DUP6 ADD PUSH2 0x57C DUP6 PUSH2 0x52E JUMP JUMPDEST DUP1 PUSH0 JUMPDEST DUP6 DUP2 LT ISZERO PUSH2 0x5B7 JUMPI DUP5 DUP5 SUB DUP10 MSTORE DUP2 MLOAD PUSH2 0x598 DUP6 DUP3 PUSH2 0x537 JUMP JUMPDEST SWAP5 POP PUSH2 0x5A3 DUP4 PUSH2 0x54A JUMP JUMPDEST SWAP3 POP PUSH1 0x20 DUP11 ADD SWAP10 POP POP PUSH1 0x1 DUP2 ADD SWAP1 POP PUSH2 0x57F JUMP JUMPDEST POP DUP3 SWAP8 POP DUP8 SWAP6 POP POP POP POP POP POP SWAP3 SWAP2 POP POP JUMP JUMPDEST PUSH0 PUSH1 0x80 DUP4 ADD PUSH0 DUP4 ADD MLOAD DUP5 DUP3 SUB PUSH0 DUP7 ADD MSTORE PUSH2 0x5E3 DUP3 DUP3 PUSH2 0x4C7 JUMP JUMPDEST SWAP2 POP POP PUSH1 0x20 DUP4 ADD MLOAD DUP5 DUP3 SUB PUSH1 0x20 DUP7 ADD MSTORE PUSH2 0x5FD DUP3 DUP3 PUSH2 0x4C7 JUMP JUMPDEST SWAP2 POP POP PUSH1 0x40 DUP4 ADD MLOAD PUSH2 0x612 PUSH1 0x40 DUP7 ADD DUP3 PUSH2 0x50B JUMP JUMPDEST POP PUSH1 0x60 DUP4 ADD MLOAD DUP5 DUP3 SUB PUSH1 0x60 DUP7 ADD MSTORE PUSH2 0x62A DUP3 DUP3 PUSH2 0x556 JUMP JUMPDEST SWAP2 POP POP DUP1 SWAP2 POP POP SWAP3 SWAP2 POP POP JUMP JUMPDEST PUSH0 PUSH1 0x20 DUP3 ADD SWAP1 POP DUP2 DUP2 SUB PUSH0 DUP4 ADD MSTORE PUSH2 0x64F DUP2 DUP5 PUSH2 0x5C9 JUMP JUMPDEST SWAP1 POP SWAP3 SWAP2 POP POP JUMP JUMPDEST PUSH32 0x4E487B7100000000000000000000000000000000000000000000000000000000 PUSH0 MSTORE PUSH1 0x32 PUSH1 0x4 MSTORE PUSH1 0x24 PUSH0 REVERT JUMPDEST PUSH0 DUP3 SWAP1 POP SWAP3 SWAP2 POP POP JUMP JUMPDEST PUSH32 0x4E487B7100000000000000000000000000000000000000000000000000000000 PUSH0 MSTORE PUSH1 0x41 PUSH1 0x4 MSTORE PUSH1 0x24 PUSH0 REVERT JUMPDEST PUSH32 0x4E487B7100000000000000000000000000000000000000000000000000000000 PUSH0 MSTORE PUSH1 0x22 PUSH1 0x4 MSTORE PUSH1 0x24 PUSH0 REVERT JUMPDEST PUSH0 PUSH1 0x2 DUP3 DIV SWAP1 POP PUSH1 0x1 DUP3 AND DUP1 PUSH2 0x6FF JUMPI PUSH1 0x7F DUP3 AND SWAP2 POP JUMPDEST PUSH1 0x20 DUP3 LT DUP2 SUB PUSH2 0x712 JUMPI PUSH2 0x711 PUSH2 0x6BB JUMP JUMPDEST JUMPDEST POP SWAP2 SWAP1 POP JUMP JUMPDEST PUSH0 DUP2 SWAP1 POP DUP2 PUSH0 MSTORE PUSH1 0x20 PUSH0 KECCAK256 SWAP1 POP SWAP2 SWAP1 POP JUMP JUMPDEST PUSH0 PUSH1 0x20 PUSH1 0x1F DUP4 ADD DIV SWAP1 POP SWAP2 SWAP1 POP JUMP JUMPDEST PUSH0 DUP3 DUP3 SHL SWAP1 POP SWAP3 SWAP2 POP POP JUMP JUMPDEST PUSH0 PUSH1 0x8 DUP4 MUL PUSH2 0x774 PUSH32 0xFFFFFFFFFFFFFFFFFFFFFFFFFFFFFFFFFFFFFFFFFFFFFFFFFFFFFFFFFFFFFFFF DUP3 PUSH2 0x739 JUMP JUMPDEST PUSH2 0x77E DUP7 DUP4 PUSH2 0x739 JUMP JUMPDEST SWAP6 POP DUP1 NOT DUP5 AND SWAP4 POP DUP1 DUP7 AND DUP5 OR SWAP3 POP POP POP SWAP4 SWAP3 POP POP POP JUMP JUMPDEST PUSH0 DUP2 SWAP1 POP SWAP2 SWAP1 POP JUMP JUMPDEST PUSH0 PUSH2 0x7B9 PUSH2 0x7B4 PUSH2 0x7AF DUP5 PUSH2 0x353 JUMP JUMPDEST PUSH2 0x796 JUMP JUMPDEST PUSH2 0x353 JUMP JUMPDEST SWAP1 POP SWAP2 SWAP1 POP JUMP JUMPDEST PUSH0 DUP2 SWAP1 POP SWAP2 SWAP1 POP JUMP JUMPDEST PUSH2 0x7D2 DUP4 PUSH2 0x79F JUMP JUMPDEST PUSH2 0x7E6 PUSH2 0x7DE DUP3 PUSH2 0x7C0 JUMP JUMPDEST DUP5 DUP5 SLOAD PUSH2 0x745 JUMP JUMPDEST DUP3 SSTORE POP POP POP POP JUMP JUMPDEST PUSH0 SWAP1 JUMP JUMPDEST PUSH2 0x7FA PUSH2 0x7EE JUMP JUMPDEST PUSH2 0x805 DUP2 DUP5 DUP5 PUSH2 0x7C9 JUMP JUMPDEST POP POP POP JUMP JUMPDEST JUMPDEST DUP2 DUP2 LT ISZERO PUSH2 0x828 JUMPI PUSH2 0x81D PUSH0 DUP3 PUSH2 0x7F2 JUMP JUMPDEST PUSH1 0x1 DUP2 ADD SWAP1 POP PUSH2 0x80B JUMP JUMPDEST POP POP JUMP JUMPDEST PUSH1 0x1F DUP3 GT ISZERO PUSH2 0x86D JUMPI PUSH2 0x83E DUP2 PUSH2 0x718 JUMP JUMPDEST PUSH2 0x847 DUP5 PUSH2 0x72A JUMP JUMPDEST DUP2 ADD PUSH1 0x20 DUP6 LT ISZERO PUSH2 0x856 JUMPI DUP2 SWAP1 POP JUMPDEST PUSH2 0x86A PUSH2 0x862 DUP6 PUSH2 0x72A JUMP JUMPDEST DUP4 ADD DUP3 PUSH2 0x80A JUMP JUMPDEST POP POP JUMPDEST POP POP POP JUMP JUMPDEST PUSH0 DUP3 DUP3 SHR SWAP1 POP SWAP3 SWAP2 POP POP JUMP JUMPDEST PUSH0 PUSH2 0x88D PUSH0 NOT DUP5 PUSH1 0x8 MUL PUSH2 0x872 JUMP JUMPDEST NOT DUP1 DUP4 AND SWAP2 POP POP SWAP3 SWAP2 POP POP JUMP JUMPDEST PUSH0 PUSH2 0x8A5 DUP4 DUP4 PUSH2 0x87E JUMP JUMPDEST SWAP2 POP DUP3 PUSH1 0x2 MUL DUP3 OR SWAP1 POP SWAP3 SWAP2 POP POP JUMP JUMPDEST PUSH2 0x8BF DUP4 DUP4 PUSH2 0x684 JUMP JUMPDEST PUSH8 0xFFFFFFFFFFFFFFFF DUP2 GT ISZERO PUSH2 0x8D8 JUMPI PUSH2 0x8D7 PUSH2 0x68E JUMP JUMPDEST JUMPDEST PUSH2 0x8E2 DUP3 SLOAD PUSH2 0x6E8 JUMP JUMPDEST PUSH2 0x8ED DUP3 DUP3 DUP6 PUSH2 0x82C JUMP JUMPDEST PUSH0 PUSH1 0x1F DUP4 GT PUSH1 0x1 DUP2 EQ PUSH2 0x91A JUMPI PUSH0 DUP5 ISZERO PUSH2 0x908 JUMPI DUP3 DUP8 ADD CALLDATALOAD SWAP1 POP JUMPDEST PUSH2 0x912 DUP6 DUP3 PUSH2 0x89A JUMP JUMPDEST DUP7 SSTORE POP PUSH2 0x979 JUMP JUMPDEST PUSH1 0x1F NOT DUP5 AND PUSH2 0x928 DUP7 PUSH2 0x718 JUMP JUMPDEST PUSH0 JUMPDEST DUP3 DUP2 LT ISZERO PUSH2 0x94F JUMPI DUP5 DUP10 ADD CALLDATALOAD DUP3 SSTORE PUSH1 0x1 DUP3 ADD SWAP2 POP PUSH1 0x20 DUP6 ADD SWAP5 POP PUSH1 0x20 DUP2 ADD SWAP1 POP PUSH2 0x92A JUMP JUMPDEST DUP7 DUP4 LT ISZERO PUSH2 0x96C JUMPI DUP5 DUP10 ADD CALLDATALOAD PUSH2 0x968 PUSH1 0x1F DUP10 AND DUP3 PUSH2 0x87E JUMP JUMPDEST DUP4 SSTORE POP JUMPDEST PUSH1 0x1 PUSH1 0x2 DUP9 MUL ADD DUP9 SSTORE POP POP POP JUMPDEST POP POP POP POP POP POP POP JUMP INVALID LOG2 PUSH5 0x6970667358 0x22 SLT KECCAK256 PUSH5 0xFC3A05EAB0 PUSH2 0xA31 0xF9 0x2D SHL 0xDD STOP SWAP15 0xD2 ADDMOD 0xAE BLOCKHASH 0x2E CALL POP 0xE2 0xE4 CREATE2 PUSH8 0x677CD98758936473 PUSH16 0x6C634300081A00330000000000000000 "
		},
		"gasEstimates": {
			"creation": {
				"codeDepositCost": "497600",
				"executionCost": "infinite",
				"totalCost": "infinite"
			},
			"external": {
				"getStu()": "infinite",
				"setStuHobby(uint256,string)": "infinite",
				"setStuName(string)": "infinite"
			}
		},
		"methodIdentifiers": {
			"getStu()": "f7660610",
			"setStuHobby(uint256,string)": "8605d2a8",
			"setStuName(string)": "8b6f4dc0"
		}
	},
	"abi": [
		{
			"inputs": [],
			"name": "getStu",
			"outputs": [
				{
					"components": [
						{
							"internalType": "string",
							"name": "name",
							"type": "string"
						},
						{
							"internalType": "string",
							"name": "gender",
							"type": "string"
						},
						{
							"internalType": "uint8",
							"name": "age",
							"type": "uint8"
						},
						{
							"internalType": "string[2]",
							"name": "hobby",
							"type": "string[2]"
						}
					],
					"internalType": "struct StructDemo.Student",
					"name": "",
					"type": "tuple"
				}
			],
			"stateMutability": "view",
			"type": "function"
		},
		{
			"inputs": [
				{
					"internalType": "uint256",
					"name": "i",
					"type": "uint256"
				},
				{
					"internalType": "string",
					"name": "hobby",
					"type": "string"
				}
			],
			"name": "setStuHobby",
			"outputs": [],
			"stateMutability": "nonpayable",
			"type": "function"
		},
		{
			"inputs": [
				{
					"internalType": "string",
					"name": "_name",
					"type": "string"
				}
			],
			"name": "setStuName",
			"outputs": [],
			"stateMutability": "nonpayable",
			"type": "function"
		}
	]
}